S0190000693263206D6173746572207363686F6F6C2E73726563B9
S113000071C0000086C0000084C0000082C00000EF
S113001080C000007EC000007CC000007AC00000E8
S113002078C0000076C0000074C0000072C00000F8
S113003070C000006EC000006CC000006AC0000008
S113004068C0000066C0000064C0000062C0000018
S113005060C000005EC000005CC000005AC0000028
S113006058C0000056C0000054C0000052C0000038
S113007050C000004EC000004CC000004AC0000048
S113008048C0000046C0000044C0000042C0000058
S113009040C000003EC000003CC000003AC0000068
S11300A038C0000036C0000034C0000032C0000078
S11300B030C000002EC000002CC000002AC0000088
S11300C028C0000026C0000024C0000022C0000098
S11300D020C000001EC000001CC000001AC00000A8
S11300E018C0000011241FBECFEFD1E2DEBFCDBF88
S11300F000E00CBF12E0A0E0B2E0E6EEF3E000E0C6
S11301000BBF02C007900D92A233B107D9F7EDD00F
S113011068C176CF1092B90088E48093B80084E077
S11301208093BC000895AF92BF92DF92EF92FF924A
S11301300F931F93CF93DF93CDB7DEB72F970FB6EF
S1130140F894DEBF0FBECDBFECEBF0E0908190627F
S1130150908390819923ECF79091B9009983880F4B
S11301608F5F8093BB0084E88093BC00ECEBF0E0ED
S113017080818823ECF78091B9008A838091BB0049
S1130180DB018C9390E050E041505109ECEBF0E03E
S11301900F2EF4ECEF2EF02D0F2EF4E8DF2EF02DC1
S11301A009EB10E00F2EFBEBAF2EB12CF02D292F15
S11301B030E02417350711F4D08201C0E082808139
S11301C08823ECF7D8018C91A1E0B0E0AC0FBD1FFF
S11301D02A0F3B1FD9018C93D501FC909B01290F59
S11301E0311DD901FC929F5F803509F384E9809326
S11301F0BC002F960FB6F894DEBF0FBECDBFDF91C3
S1130200CF911F910F91FF90EF90DF90BF90AF902F
S11302100895ECEBF0E090819062908390819923B3
S1130220ECF7880F8093BB0084E88093BC00ECEB70
S1130230F0E080818823ECF76093BB0084E880932E
S1130240BC00ECEBF0E080818823ECF784E9809338
S1130250BC000895E0ECF0E080818823ECF7809105
S1130260C6000895E0ECF0E0908195FFFDCF809307
S1130270C6000895CF93DF93EC018881882329F089
S11302802196F0DF89918111FCCFDF91CF91089500
S11302901092C50087E68093C4001092C00086E0E7
S11302A08093C20088E18093C10080E092E0E2CFB5
S11302B00895CF93DF93CDB7DEB761970FB6F89467
S11302C0DEBF0FBECDBF462F50E0BE016F5F7F4F34
S11302D04BD0CE010196CEDF61960FB6F894DEBF07
S11302E00FBECDBFDF91CF910895CF93DF93CDB7EC
S11302F0DEB72A970FB6F894DEBF0FBECDBF83E0FA
S11303008BB9C6DF07DF82E192E0B4DF61E011E080
S1130310160F88E07EDF88E02FEF34E39CE0215065
S113032030409040E1F700C000008150A9F792DF0F
S113033099DF41E0BE016F5F7F4F88E0F4DE8FE11B
S113034092E098DF89816AE090E0B3DF88E02FEFE4
S113035034E39CE0215030409040E1F700C00000BD
S11303608150A9F7612FD3CF4532510518F442309B
S113037008F004C0FB011082CB010895BB274A306A
S113038031F4992322F4BDE2909581959F4F01C0E9
S1130390BB27FB015527AA27880F991FAA1FA4175B
S11303A010F0A41B83955051B9F7A05DAA3308F04F
S11303B0A95DA193009779F7B111B1931192CB0183
S11303C000C0DC01FC01672F71917723E1F73297BC
S11303D004C07C916D9370836291AE17BF07C8F31C
S10903E00895F894FFCF1C
S11303E67573617274207765726B74206E6F670A19
S11303F60D0045656E20746573746A650A0D000AFE
S11304060D646174612076616E20646520525036F5
S10504162000C0
S9030000FC
