:100000007CC0000099C0000097C0000095C00000AF
:1000100093C0000091C000008FC000008DC00000A0
:100020008BC0000089C0000087C0000085C00000B0
:1000300083C0000081C000007FC000007DC00000C0
:100040007BC0000079C0000077C0000075C00000D0
:1000500073C0000071C000006FC000006DC00000E0
:100060006BC0000069C0000067C0000065C00000F0
:1000700063C0000061C000005FC000005DC0000000
:100080005BC0000059C0000057C0000055C0000010
:1000900053C0000051C000004FC000004DC0000020
:1000A0004BC0000049C0000047C0000045C0000030
:1000B00043C0000041C000003FC000003DC0000040
:1000C0003BC0000039C0000037C0000035C0000050
:1000D00033C0000031C000002FC000002DC0000060
:1000E0002BC00000A801B001B201C301B401B601E8
:1000F000B901C301BC01BE01C10111241FBECFEF74
:10010000D1E2DEBFCDBF00E00CBF12E0A0E0B2E064
:10011000E8E4F5E000E00BBF02C007900D92A431C7
:10012000B107D9F722E0A4E1B2E001C01D92A132EB
:10013000B207E1F79DD106C263CF80910002909192
:100140000102019759F580911702909118028430AD
:10015000910551F01CF4892B69F506C08830910592
:1001600019F00C9779F00895E7E1F2E0118210821E
:10017000809115029091160249969383828395830C
:100180008483089580911502909116024997E7E1C2
:10019000F2E093838283958384830895E7E1F2E01C
:1001A0001182108280911F0290912002938382839A
:1001B00095838483089580910002909101020197B4
:1001C00069F5809117029091180284309105B1F081
:1001D0001CF4892B39F008958830910579F00C973B
:1001E00059F50CC080911502909116024997E7E1EC
:1001F000F2E093838283958384830895E7E1F2E0BC
:100200008CE090E09183808380911502909116029A
:10021000499693838283958384830895E7E1F2E08E
:100220008CE090E09183808380911F029091200266
:10023000938382839583848308958091170290919C
:1002400018028430910539F11CF4892B31F008959E
:100250008830910501F10C9751F58091150290912C
:100260001602009759F0E7E1F2E09C0129513109AB
:10027000338322834996958384830895E7E1F2E0EE
:1002800088E090E09183808382E390E0938382838F
:10029000958384830895E7E1F2E088E090E091831C
:1002A000808382E390E0938382839583848308959F
:1002B00080911702909118028430910539F11CF455
:1002C000892B31F008958830910501F10C9751F593
:1002D0008091150290911602009759F0E7E1F2E043
:1002E0009C01275E3F4F3383228349979583848304
:1002F0000895E7E1F2E084E090E09183808382E377
:1003000090E093838283958384830895E7E1F2E00C
:1003100084E090E09183808382E390E09383828302
:10032000958384830895E7E1F2E0118210821382BD
:100330001282158214820895E0911D02F0911E022E
:10034000EB30F10500F58827EE58FF4F8F4FF2C0D4
:100350008091000290910102892BA9F4E4CF0895C5
:10036000ECCE089528CF0895A3CF0895E6DEA0CF60
:10037000089521DF9DCF089560CF0895DEDE5DCF23
:10038000089519DF5ACF0895E0ECF0E0908195FFD1
:10039000FDCF8093C6000895CF93E0ECF0E080811C
:1003A0008823ECF7C091C6008C2FEEDF8C2FCF9105
:1003B0000895CF93DF93EC018881882329F021965B
:1003C000E3DF89918111FCCFDF91CF9108951092E5
:1003D000C50087E68093C4001092C00086E0809339
:1003E000C20088E18093C10082E092E0E2CF0895EC
:1003F000843689F028F4803289F0813649F011C0C2
:10040000833719F0873781F00CC082E090E00895BF
:1004100088E090E0089584E090E0089580E890E01E
:10042000089580E090E0089581E090E00895ECEB7D
:10043000F0E090819062908390819923ECF7880F8F
:100440008093BB0084E88093BC00ECEBF0E08081FB
:100450008823ECF76093BB0084E88093BC00ECEB4E
:10046000F0E080818823ECF784E98093BC00089554
:10047000AEDFC7E1D2E00AEF10E08EDFB9DF909384
:100480001E0280931D028038910514F04CDF01C0DC
:1004900053DF8A819B8199231CF41B821A8205C039
:1004A0008B3F910514F01B830A838C819D819923D6
:1004B0001CF41D821C8205C08B3F910514F01D8326
:1004C0000C836881798164307105D9F024F4611559
:1004D000710539F01AC06830710599F06C307105FA
:1004E000A1F42A813B818C819D81820F931F9923E6
:1004F0000CF40196959587959093160280931502BA
:1005000004C01092160210921502809114028FDF1F
:100510006A81809114028BDF6C818091140287DFE5
:100520002FEF80E792E0215080409040E1F700C03B
:100530000000A3CFEE0FFF1F881F8BBF0790F6911F
:08054000E02D1994F894FFCF9F
:1005480001007573617274207765726B74206E6F29
:04055800670A0D0021
:00000001FF
