S013000041726475696E6F636F64652E73726563A4
S11300007CC0000099C0000097C0000095C00000AB
S113001093C0000091C000008FC000008DC000009C
S11300208BC0000089C0000087C0000085C00000AC
S113003083C0000081C000007FC000007DC00000BC
S11300407BC0000079C0000077C0000075C00000CC
S113005073C0000071C000006FC000006DC00000DC
S11300606BC0000069C0000067C0000065C00000EC
S113007063C0000061C000005FC000005DC00000FC
S11300805BC0000059C0000057C0000055C000000C
S113009053C0000051C000004FC000004DC000001C
S11300A04BC0000049C0000047C0000045C000002C
S11300B043C0000041C000003FC000003DC000003C
S11300C03BC0000039C0000037C0000035C000004C
S11300D033C0000031C000002FC000002DC000005C
S11300E02BC00000600168016A017B016C016E0194
S11300F071017B0174017601790111241FBECFEFD8
S1130100D1E2DEBFCDBF00E00CBF12E0A0E0B2E060
S1130110E8E8F4E000E00BBF02C007900D92A431C0
S1130120B107D9F722E0A4E1B2E001C01D92AD31DC
S1130130B207E1F761D1A6C163CF8091000290912B
S11301400102019701F580911602843049F018F4F8
S1130150811120C005C0883019F08C3051F0089509
S1130160E6E1F2E0108280911402875E818382834B
S11301700895E6E1F2E08CE08083809114028951D5
S1130180818382830895E6E1F2E0108280911B026C
S113019081838283089580910002909101020197E6
S11301A001F580911602843091F018F4882331F01F
S11301B00895883061F08C30E1F409C0E6E1F2E0A2
S11301C01082809114028951818382830895E6E12B
S11301D0F2E08CE0808380911402875E81838283C5
S11301E00895E6E1F2E08CE0808380911B02818334
S11301F082830895809116028430F1F018F48823E4
S113020029F008958830C1F08C30E9F4809114020B
S113021090911502009741F0E6E1F2E097EE980F15
S11302209183875E82830895E6E1F2E088E080832B
S113023082E3818382830895E6E1F2E088E08083AB
S113024082E3818382830895809116028430F1F0E1
S113025018F4882329F008958830C1F08C30E9F42B
S11302608091140290911502009741F0E6E1F2E0CA
S113027099E1980F9183895182830895E6E1F2E030
S113028084E0808382E3818382830895E6E1F2E05F
S113029084E0808382E3818382830895E6E1F2E04F
S11302A01082118212820895E0911902F0911A02CB
S11302B0EB30F10500F58827EE58FF4F8F4FDAC079
S11302C08091000290910102892BA9F4E7CF08954F
S11302D034CF089560CF0895B7CF08952EDFB4CFFB
S11302E0089559DFB1CF089585CF089526DF82CFD1
S11302F0089551DF7FCF0895E0ECF0E0908195FF01
S1130300FDCF8093C6000895CF93E0ECF0E08081A8
S11303108823ECF7C091C6008C2FEEDF8C2FCF9191
S11303200895CF93DF93EC018881882329F02196E7
S1130330E3DF89918111FCCFDF91CF910895109271
S1130340C50087E68093C4001092C00086E08093C5
S1130350C20088E18093C10082E092E0E2CF089578
S1130360843689F028F4803289F0813649F011C04E
S1130370833719F0873781F00CC082E090E008954C
S113038088E090E0089584E090E0089580E890E0AB
S1130390089580E090E0089581E090E00895CF937F
S11303A0DF93ECEBF0E0808180628083808188239E
S11303B0ECF780E18093BB00A6E1B2E029E132E0F2
S11303C0ECEBF0E094E8CBEBD0E0908380818823E1
S11303D0ECF78D918883A217B307B9F784E880936B
S11303E0BC00ECEBF0E080818823ECF784E9809397
S11303F0BC00DF91CF910895A2DFC6E1D2E01AEFED
S113040083DFAEDF90931A0280931902803891053E
S113041014F044DF01C048DF89818B3F08F0198361
S11304208A818B3F08F01A8388818430A1F018F404
S1130430882329F014C0883071F08C3081F429812C
S11304408A8190E0820F911D95958795909315026E
S11304508093140204C010921502109214029FDFBC
S11304602FEF80E792E0215080409040E1F700C0F8
S11304700000C6CFEE0FFF1F881F8BBF0790F691B9
S10B0480E02D1994F894FFCF5C
S113048801007573617274207765726B74206E6FE6
S1070498670A0D00DE
S9030000FC
