:100000000C942A000C9434000C9434000C943400AA
:100010000C9434000C9434000C9434000C94340090
:100020000C9434000C9434000C9434000C94340080
:100030000C9434000C9434000C9434000C94340070
:100040000C9434000C9434000C9434000C94340060
:100050000C94340011241FBECFE5D8E0DEBFCDBF25
:100060000E94D7000C94DC000C94000085B385BB83
:100070008FEF90E09BBD8ABD99BD88BD80E090E088
:10008000E3E2F4EF3197F1F700C00000019680320F
:100090009105B1F785B385BB8FEF90E09BBD8ABD1D
:1000A0008CE890E099BD88BD80E090E0E3E2F4EF59
:1000B0003197F1F700C00000019680329105B1F749
:1000C00085B385BB8CE890E09BBD8ABD8FEF90E047
:1000D00099BD88BD80E090E0E3E2F4EF3197F1F75D
:1000E00000C00000019680329105B1F785B385BB51
:1000F0001BBC1ABC19BC18BC80E090E0E3E2F4EF32
:100100003197F1F700C00000019680329105B1F7F8
:10011000AA9A1BBC1ABC8FEF90E099BD88BD80E005
:1001200090E0E3E2F4EF3197F1F700C000000196B0
:1001300080329105B1F7AB9A8FEF90E09BBD8ABDFD
:1001400019BC18BC80E090E0E3E2F4EF3197F1F7DE
:1001500000C00000019680329105B1F785B38C6034
:1001600085BB8FEF90E09BBD8ABD99BD88BD80E0C7
:1001700090E0E3E2F4EF3197F1F700C00000019660
:1001800080329105B1F708951DBC1CBC82EA8FBD79
:1001900081E18EBD8FEF90E097BD86BD80E590E058
:1001A0009BBD8ABD99BD88BD8D9A8C9A08950E9489
:0C01B000C4000E943600FDCFF894FFCF81
:00000001FF
