S013000041726475696E6F636F64652E73726563A4
S11300000C9434000C9446000C9446000C94460066
S11300100C9446000C9446000C9446000C94460044
S11300200C9446000C9446000C9446000C94460034
S11300300C9446000C9446000C9446000C94460024
S11300400C9446000C9446000C9446000C94460014
S11300500C9446002B012E014A013101340139016F
S11300604A013E014101460111241FBECFE5D8E0FB
S1130070DEBFCDBF20E0A0E6B0E001C01D92A037F6
S1130080B207E1F70E9413010C94A3010C94000041
S11300908091660090916700892B09F1809160003E
S11300A090916100009719F00C9769F00895809180
S11300B06A0090916B004996E0E6F0E093838283B6
S11300C095838483089580916A0090916B00499789
S11300D0E0E6F0E093838283958384830895E0E6E9
S11300E0F0E01182108280916E0090916F009383F2
S11300F0828395838483089580916600909167003C
S1130100892B09F18091600090916100009719F0AA
S11301100C9769F0089580916A0090916B0049975B
S1130120E0E6F0E09383828395838483089580914D
S11301306A0090916B004996E0E6F0E09383828335
S1130140958384830895E0E6F0E08CE090E0918369
S1130150808380916E0090916F0093838283958356
S113016084830895809160009091610084309105AA
S1130170C1F01CF4892B31F008958830910589F081
S11301800C97D9F480916A0090916B00E0E6F0E05E
S11301909C012951310933832283499695838483B1
S11301A00895E0E6F0E088E090E09183808382E3C4
S11301B090E0938382839583848308958091600083
S11301C09091610084309105C1F01CF4892B31F0C9
S11301D008958830910589F00C97D9F480916A00CC
S11301E090916B00E0E6F0E09C01275E3F4F338383
S11301F022834997958384830895E0E6F0E084E0C0
S113020090E09183808382E390E09383828395835B
S113021084830895E0E6F0E0118210821382128252
S1130220158214820895E0E6F0E0138212821582AA
S11302301482E0916C00F0916D00E038F1051CF03F
S11302400E940A0127C03197EA30F10518F5E65DEE
S1130250FF4F0C949D010E9448001CC00E947C002A
S113026019C00E94DE0016C00E9448000E94DE00F1
S113027011C00E947C000E94DE000CC00E94B200EB
S113028009C00E9448000E94B20004C00E947C0081
S11302900E94B200809162009091630099232CF433
S11302A010926300109262000AC08F3F910539F0EA
S11302B034F08FEF90E0909363008093620080911C
S11302C064009091650099232CF4109265001092BB
S11302D064000AC08F3F910539F034F08FEF90E04D
S11302E09093650080936400809160009091610018
S11302F084309105D9F01CF4892B31F01BC088306F
S11303009105A1F00C97B1F4E0E6F0E0228133818D
S113031084819581820F931F99230CF401969595FE
S1130320879590936B0080936A0004C010926B00D1
S113033010926A0080E090E00895EE0FFF1F059090
S10D0340F491E02D0994F894FFCF26
S9030000FC
