S013000041726475696E6F636F64652E73726563A4
S11300000C9435000C9452000C9452000C94520041
S11300100C9452000C9452000C9452000C94520014
S11300200C9452000C9452000C9452000C94520004
S11300300C9452000C9452000C9452000C945200F4
S11300400C9452000C9452000C9452000C945200E4
S11300500C9452005E0167016A0186016D01700112
S1130060750186017A017D01820111241FBECFE54D
S1130070D8E0DEBFCDBF10E0A0E6B0E0E8EDF3E0ED
S113008002C005900D92A236B107D9F720E0A2E68E
S1130090B0E001C01D92AE36B207E1F70E948701BD
S11300A00C94EA010C94000080916000909161002E
S11300B0019759F580916400909165008430910511
S11300C051F01CF4892B69F506C08830910519F0AC
S11300D00C9779F00895E4E6F0E0118210828091A3
S11300E0620090916300499693838283958384830D
S11300F0089580916200909163004997E4E6F0E0EE
S113010093838283958384830895E4E6F0E01182E7
S1130110108280916C0090916D009383828395830B
S1130120848308958091600090916100019769F53E
S1130130809164009091650084309105B1F01CF4C5
S1130140892B39F008958830910579F00C9759F589
S11301500CC080916200909163004997E4E6F0E05E
S113016093838283958384830895E4E6F0E08CE0AE
S113017090E091838083809162009091630049961E
S113018093838283958384830895E4E6F0E08CE08E
S113019090E09183808380916C0090916D009383B3
S11301A0828395838483089580916400909165008F
S11301B08430910539F11CF4892B31F0089588308D
S11301C0910501F10C9751F58091620090916300C3
S11301D0009759F0E4E6F0E09C012951310933839A
S11301E022834996958384830895E4E6F0E088E0C9
S11301F090E09183808382E390E09383828395836C
S113020084830895E4E6F0E088E090E091838083BD
S113021082E390E09383828395838483089580911D
S11302206400909165008430910539F11CF4892BA8
S113023031F008958830910501F10C9751F58091C2
S1130240620090916300009759F0E4E6F0E09C01AD
S1130250275E3F4F33832283499795838483089590
S1130260E4E6F0E084E090E09183808382E390E030
S113027093838283958384830895E4E6F0E084E0A5
S113028090E09183808382E390E0938382839583DB
S113029084830895E4E6F0E01182108213821282CE
S11302A0158214820895E0916A00F0916B00EB309E
S11302B0F10560F5E65DFF4F0C94E4018091600068
S11302C090916100892B11F50E944A0108950E94C2
S11302D0540008950E94920008950E940F01089509
S11302E00E9454000E940F0108950E9492000E94EF
S11302F00F0108950E94D40008950E9454000E94A2
S1130300D40008950E9492000E94D4000895809120
S11303106A0090916B00803891051CF00E944A019C
S113032002C00E9453018091660090916700992356
S11303302CF4109267001092660009C08B3F91055F
S113034034F08AEF90E09093670080936600809188
S113035068009091690099232CF41092690010921E
S1130360680009C08B3F910534F08AEF90E09093C8
S113037069008093680080916400909165008430E6
S11303809105D9F01CF4892B31F01BC088309105FC
S1130390A1F00C97B1F4E4E6F0E02281338184818A
S11303A09581820F931F99230CF401969595879557
S11303B0909363008093620004C0109263001092D3
S11303C0620080E090E00895EE0FFF1F0590F49125
S10B03D0E02D0994F894FFCF1D
S10503D801001E
S9030000FC
