S013000041726475696E6F636F64652E73726563A4
S11300000C9435000C9447000C9447000C94470062
S11300100C9447000C9447000C9447000C94470040
S11300200C9447000C9447000C9447000C94470030
S11300300C9447000C9447000C9447000C94470020
S11300400C9447000C9447000C9447000C94470010
S11300500C944700590162016501810168016B013B
S113006070018101750178017D0111241FBECFE566
S1130070D8E0DEBFCDBF20E0A0E6B0E001C01D9215
S1130080AE36B207E1F70E9448010C94D8010C94F3
S113009000008091680090916900019759F5809162
S11300A06200909163008430910551F01CF4892B17
S11300B069F506C08830910519F00C9779F0089518
S11300C0E2E6F0E01182108280916000909161007C
S11300D049969383828395838483089580916000F5
S11300E0909161004997E2E6F0E0938382839583DF
S11300F084830895E2E6F0E01182108280916C001E
S113010090916D0093838283958384830895809175
S1130110680090916900019769F58091620090915F
S1130120630084309105B1F01CF4892B39F00895F3
S11301308830910579F00C9759F50CC080916000D6
S1130140909161004997E2E6F0E09383828395837E
S113015084830895E2E6F0E08CE090E0918380836C
S11301608091600090916100499693838283958386
S113017084830895E2E6F0E08CE090E0918380834C
S113018080916C0090916D00938382839583848326
S1130190089580916200909163008430910539F153
S11301A01CF4892B31F008958830910501F10C97E6
S11301B051F58091600090916100009759F0E2E65A
S11301C0F0E09C01295131093383228349969583B8
S11301D084830895E2E6F0E088E090E091838083F0
S11301E082E390E093838283958384830895E2E697
S11301F0F0E088E090E09183808382E390E0938351
S11302008283958384830895809162009091630032
S11302108430910539F11CF4892B31F0089588302C
S1130220910501F10C9751F5809160009091610066
S1130230009759F0E2E6F0E09C01275E3F4F3383DC
S113024022834997958384830895E2E6F0E084E06D
S113025090E09183808382E390E09383828395830B
S113026084830895E2E6F0E084E090E09183808363
S113027082E390E093838283958384830895E2E606
S1130280F0E0118210821382128215821482089582
S1130290E0916A00F0916B00E038F1051CF00E94D7
S11302A03F012FC0EB30F10560F5E65DFF4F0C9484
S11302B0D2018091680090916900892B11F50E9408
S11302C03F011FC00E9449001CC00E94870019C042
S11302D00E94040116C00E9449000E94040111C03A
S11302E00E9487000E9404010CC00E94C90009C03A
S11302F00E9449000E94C90004C00E9487000E9415
S1130300C900809164009091650099232CF41092A7
S113031065001092640009C08B3F910534F08AEFA8
S113032090E09093650080936400809166009091C2
S1130330670099232CF4109267001092660009C09C
S11303408B3F910534F08AEF90E09093670080939F
S11303506600809162009091630084309105D9F029
S11303601CF4892B31F01BC088309105A1F00C9747
S1130370B1F4E2E6F0E02281338184819581820F39
S1130380931F99230CF4019695958795909361009A
S11303908093600004C0109261001092600080E0BD
S11303A090E00895EE0FFF1F0590F491E02D09945D
S10703B0F894FFCFEB
S9030000FC
