S01200007363686F6F6C206932632E737265636C
S11300000C942A000C9447000C9447000C9447006D
S11300100C9447000C9447000C9447000C94470040
S11300200C9447000C9447000C9447000C94470030
S11300300C9447000C9447000C9447000C94470020
S11300400C9447000C9447000C9447000C94ED006A
S11300500C94470011241FBECFE5D8E0DEBFCDBF0E
S113006010E0A0E6B0E0EEE1F3E002C005900D92EE
S1130070A837B107D9F720E0A8E7B0E001C01D9286
S1130080AA3BB207E1F70E9411010C948D010C9474
S113009000008091600091E0980F909360000895B3
S11300A011B890E290B995E496BF880F82B908958B
S11300B081B1803AD1F028F4803641F0803849F09B
S11300C035C0883A21F1883B59F130C01092A00024
S11300D02DC0E091A00081E08E0F8093A00083B139
S11300E0F0E0E858FF4F808321C0E091A400F09134
S11300F0A5006091A00088E790E00995E8E7F0E0AA
S11301008CE890E01192E817F907E1F70FC010921C
S1130110A000E091A200F091A300099583B906C064
S1130120E091A200F091A300099583B986B7806895
S113013086BF08955D9BFECF8CB90895CF93DF935E
S1130140EC018881882331F021960E949A008991DC
S11301508111FBCFDF91CF91089510BC8CE089B958
S11301601BB886E880BD88E18AB981E690E00E94E8
S11301709E000895662359F0FC01A6EAB0E09C01B4
S1130180260F311D91919D93E217F307D9F78FEF55
S11301908093A10083E790E00E949E000895CF938E
S11301A0DF93CDB7DEB761970FB6F894DEBF0FBE0D
S11301B0CDBF462F50E0BE016F5F7F4F0E944D01BF
S11301C0CE0101960E949E0061960FB6F894DEBFA0
S11301D00FBECDBFDF91CF9108951F920F920FB63E
S11301E00F9211242F933F934F935F936F937F93B9
S11301F08F939F93AF93BF93EF93FF930E94580005
S1130200FF91EF91BF91AF919F918F917F916F91EA
S11302105F914F913F912F910F900FBE0F901F90C0
S113022018958FEF84BB0E94AD0088E00E945000B7
S11302308AEB90E09093A5008093A40089E490E079
S11302409093A3008093A2007894C6EAD0E08091B2
S1130250A1008823E1F388816AE090E00E94CF0046
S11302608881833081F028F4813049F0823049F06C
S113027011C0853061F048F0863059F00BC0AC9A5B
S113028009C0AD9A07C0AE9A05C0AC9803C0AD983A
S113029001C0AE981092A100DACF4532510520F486
S11302A0423010F00C945801FB011082CB010895E8
S11302B0BB274A3031F4992322F4BDE2909581950D
S11302C09F4F0C946401BB27FB015527AA27880F75
S11302D0991FAA1FA41710F0A41B83955051B9F7B6
S11302E0A05DAA3308F0A95DA193009779F7B11135
S11302F0B1931192CB010C947D01DC01FC01672FB9
S113030071917723E1F7329704C07C916D937083E8
S11103106291AE17BF07C8F30895F894FFCFAB
S113031E337573617274207765726B74206E6F67B8
S10B032E0A0D006F0A0D000026
S9030000FC
