S01700004763634170706C69636174696F6E312E737265635B
S11300000C9436000C9440000C9440000C94400076
S11300100C9440000C9440000C9440000C9440005C
S11300200C9440000C9440000C9440000C9440004C
S11300300C9440000C9440000C9440000C9440003C
S11300400C9440000C9440000C9440000C9440002C
S11300500C9440000C9440000C9440000C9440001C
S11300600C9440000C9440000C94400011241FBEDA
S1130070CFEFD4E0DEBFCDBF0E945C000C947700CC
S11300800C9400002091C60030E0C901C09715B857
S11300908830910514F02B9A08978430910514F058
S11300A02A9A04978230910514F0299A0297813094
S11300B0910509F4289A08951092C00080E1809374
S11300C0C10086E08093C2001092C50087E6809349
S11300D0C4008FEF84B90E9442002FEF84E39CE0B8
S11300E0215080409040E1F700C00000F4CFF89424
S10500F0FFCF3C
S9030000FC
