S00B00005250362E7372656341
S11300000C942A000C9447000C9447000C9447006D
S11300100C9447000C9447000C9447000C94470040
S11300200C9447000C9447000C9447000C94470030
S11300300C9447000C9447000C9447000C94470020
S11300400C9447000C9447000C9447000C94CA008D
S11300500C94470011241FBECFE5D8E0DEBFCDBF0E
S113006010E0A0E6B0E0E0EEF1E002C005900D92F1
S1130070A237B107D9F720E0A2E7B0E001C01D9292
S1130080AC37B207E1F70E9471000C94EE000C94B7
S1130090000011B890E290B995E496BF880F82B938
S11300A008955D9BFECF8CB90895CF93DF93EC0147
S11300B08881882331F021960E9451008991811111
S11300C0FBCFDF91CF91089510BC8CE089B91BB8A8
S11300D086E880BD88E18AB980E690E00E945500F8
S11300E008958FEF84BB0E94640088E00E94490059
S11300F07894FFCFE9E7F0E0808195B38C70892B89
S113010085BB818190E09BBD8ABD828190E099BDD1
S113011088BD089581B18038C1F038F4803161F030
S1130120803681F0883091F507C0883AE9F0883B41
S113013011F1803A59F515C0E9E7F0E01082118217
S1130140128224C01092720021C0E091720081E0FA
S11301508E0F80937200F0E083B1E758FF4F8083E5
S113016015C00E947A0012C081E0809372008091D1
S1130170730083B90BC0E091720081E08E0F80930D
S11301807200F0E0ED58FF4F808183B986B7806834
S113019086BF08951F920F920FB60F9211242F93CA
S11301A03F934F935F936F937F938F939F93AF93FB
S11301B0BF93EF93FF930E948A00FF91EF91BF9149
S11301C0AF919F918F917F916F915F914F913F91EB
S11301D02F910F900FBE0F901F901895F894FFCF9A
S11301E07573617274207765726B74206E6F670A21
S10501F00D00FC
S9030000FC
