:100000000C942A000C9447000C9447000C94470071
:100010000C9447000C9447000C9447000C94470044
:100020000C9447000C9447000C9447000C94470034
:100030000C9447000C9447000C9447000C94470024
:100040000C9447000C9447000C9447000C94030157
:100050000C94470011241FBECFE5D8E0DEBFCDBF12
:1000600010E0A0E6B0E0E2E5F2E002C005900D92FB
:10007000A837B107D9F720E0A8E7B0E001C01D928A
:10008000AA3BB207E1F70E948D000C9427010C9463
:1000900000008091600091E0980F909360000895B7
:1000A00011B890E290B995E496BF880F82B908958F
:1000B0005D9BFECF8CB90895CF93DF93EC018881CF
:1000C000882331F021960E94580089918111FBCF3D
:1000D000DF91CF91089510BC8CE089B91BB886E8F8
:1000E00080BD88E18AB981E690E00E945C000895B5
:1000F000662359F0FC01A6EAB0E09C01260F311DF1
:1001000091919D93E217F307D9F78FEF8093A100A8
:1001100083E790E00E945C0008958FEF84BB0E940B
:100120006B0088E00E94500088E790E09093A50063
:100130008093A40089E490E09093A3008093A200B0
:100140007894FFCF613049F018F0623051F0089593
:1001500095B38C70892B85BB089590E09BBD8ABDBB
:10016000089590E099BD88BD089581B1803A11F15C
:1001700028F4803641F0803869F041C0883A61F156
:10018000883BB9F13CC08091A0008230C0F1109250
:10019000A00035C0E091A00061E06E0F6093A00068
:1001A00083B1F0E0E858FF4F808388E790E00E9439
:1001B000A20025C0E091A400F091A5006091A000EC
:1001C00088E790E00995E8E7F0E08CE890E011928C
:1001D000E817F907E1F713C08091A000823010F012
:1001E0001092A000E091A200F091A300099583B9BC
:1001F00006C0E091A200F091A300099583B986B7EB
:10020000806886BF08951F920F920FB60F92112437
:100210002F933F934F935F936F937F938F939F930E
:10022000AF93BF93EF93FF930E94B500FF91EF91BF
:10023000BF91AF919F918F917F916F915F914F91FE
:100240003F912F910F900FBE0F901F901895F8942B
:02025000FFCFDE
:10025200337573617274207765726B74206E6F6789
:080262000A0D006F0A0D0000F7
:00000001FF
